:100000000C942A000C94721E0C949F1E0C94CC1E0F
:100010000C9447000C94BF150C9447000C944700B7
:100020000C9447000C9447000C9447000C94C22297
:100030000C9447000C940F0E0C943C0E0C94690E1B
:100040000C9447000C9447000C9447000C94470014
:100050000C94470011241FBECFE5D8E0DEBFCDBF12
:1000600015E0A0E6B0E0EAEFF1E602C005900D92DF
:10007000A230B107D9F715E0A2E0B5E001C01D92AA
:10008000A631B107E1F70E94FA2A0C94FB300C94D8
:100090000000EF92FF920F93DF93CF93CDB7DEB7BF
:1000A00060970FB6F894DEBF0FBECDBFA82F002318
:1000B00009F461C07E010894E11CF11C88E0F7019D
:1000C00011928A95E9F729833A834B835C836D8388
:1000D0007E83AF83988780E2801BE82FFF27E7FDB0
:1000E000F09549815A816B817C81181684F01986BC
:1000F0001A861B861C86882799278E1B9F0B04C097
:10010000440F551F661F771F8A95D2F728C0202FEE
:10011000332727FD3095DB01CA01022E04C0880F6A
:10012000991FAA1FBB1F0A94D2F789879A87AB87AA
:10013000BC8704C07695679557954795EA95D2F7A1
:100140008D819E81AF81B88504C0880F991FAA1F39
:10015000BB1F2A95D2F7482B592B6A2B7B2B4D8737
:100160005E876F87788B29853A854B855C856D85A1
:100170007E85AF8598898A2F60960FB6F894DEBF8A
:100180000FBECDBFCF91DF910F91FF90EF900895FB
:10019000AEE5B0E0EEECF0E00C94BB30A8E04E0130
:1001A0000894811C911CF4016A2E11926A94E9F75B
:1001B00029833A834B835C836D837E838F83988707
:1001C000CE010996FC011192AA95E9F7A986BA8693
:1001D000CB86DC86ED86FE860F87188B29843A84D1
:1001E0004B845C84ED84FE840F85188969807A8055
:1001F0008B809C806DA67EA68FA698AA6D807E803F
:100200008F809884E114F1040105110509F0B3C34E
:10021000621473048404950408F03DC100E02016C4
:1002200000E0300601E0400600E0500688F41FEFD1
:10023000211631044104510439F030F048E0E42E35
:10024000F12C012D112D18C0EE24FF24870114C0BC
:1002500020E0221620E0320620E0420621E052068D
:1002600030F038E1E32EF12C012D112D05C020E1F5
:10027000E22EF12C012D112DD201C1010E2C04C052
:10028000B695A795979587950A94D2F7895A9D4F69
:10029000DC012C9180E290E0A0E0B0E08E199F0993
:1002A000A00BB10B7C018D01E21AF10801091109C3
:1002B000E114F10401051105A1F10E2C04C0220C7A
:1002C000331C441C551C0A94D2F7A40193010E2C34
:1002D00004C0220F331F441F551F0A94D2F780E237
:1002E00090E08E199F096DA47EA48FA498A804C0E5
:1002F00096948794779467948A95D2F7622A732AA2
:10030000842A952AADA4BEA4CFA4D8A804C0AA0C60
:10031000BB1CCC1CDD1CEA94D2F7ADA6BEA6CFA6B2
:10032000D8AA6201EE24FF24CDAADEAAEFAAF8AE75
:10033000920181012070307009AF1AAF2BAF3CAF32
:10034000C401B301A70196010E945F307B018C01BB
:10035000C401B3012DA93EA94FA958AD0E945F3039
:10036000C901DA013C014D01C401B30129AD3AAD27
:100370004BAD5CAD0E949C309B01AC018701FF241A
:10038000EE24ADA4BEA4CFA4D8A8C601AA27BB273B
:1003900057016801A82AB92ACA2ADB2AA216B3067D
:1003A000C406D506E0F40894610871088108910834
:1003B000A20CB31CC41CD51CA214B304C404D504E1
:1003C00070F0A216B306C406D50648F40894610876
:1003D000710881089108A20CB31CC41CD51CA21A78
:1003E000B30AC40AD50AC601B5012DA93EA94FA971
:1003F00058AD0E945F307B018C01C601B5012DA96B
:100400003EA94FA958AD0E945F30C901DA015C01D5
:100410006D01C601B50129AD3AAD4BAD5CAD0E9491
:100420009C309B01AC018701FF24EE248DA59EA585
:10043000AFA5B8A9A070B070E82AF92A0A2B1B2B27
:10044000E216F30604071507C0F40894A108B108E2
:10045000C108D108E20CF31C041D151DE214F304BD
:100460000405150550F0E216F3060407150728F4F5
:100470000894A108B108C108D108D3019927882799
:1004800086017501E82AF92A0A2B1B2BE9AAFAAA88
:100490000BAB1CABCFC4211431044104510471F4E3
:1004A00061E070E080E090E020E030E040E050E08B
:1004B0000E945F30C901DA011C012D0100E0201605
:1004C00000E0300601E0400600E0500688F41FEF2F
:1004D000211631044104510431F028F048E050E085
:1004E00060E070E017C040E050E060E070E012C0F3
:1004F00020E0221620E0320620E0420621E05206EB
:1005000028F048E150E060E070E004C040E150E0D5
:1005100060E070E0D201C101042E04C0B695A79539
:10052000979587950A94D2F7895A9D4FDC012C91B3
:10053000E0E2EE2EF12C012D112DD801C701841B14
:10054000950BA60BB70B821B9109A109B109009766
:10055000A105B10561F464015301A218B308C408F0
:10056000D50831E0632E712C812C912C1EC16F9621
:100570008FAF6F97082E04C0220C331C441C551CEF
:100580000A94D2F7EE2DE81B640153010E2E04C02D
:10059000D694C794B794A7940A94D2F7A401930170
:1005A0006F960FAC6F9704C0220F331F441F551F67
:1005B0000A94D2F76DA47EA48FA498A80E2E04C02E
:1005C00096948794779467940A94D2F78401730180
:1005D000E22AF32A042B152BE9A6FAA60BA71CA7DF
:1005E0003201882499249201810120703070219673
:1005F0000CAF1DAF2EAF3FAF2197C601B501A401CF
:1006000093010E945F307B018C01C601B501A401FA
:1006100093010E945F30C901DA0125968CAF9DAF2E
:10062000AEAFBFAF2597BC01CD0121962CAD3DAD3E
:100630004EAD5FAD21970E949C309B01AC018701BC
:10064000FF24EE24A9A4BAA4CBA4DCA4C601AA2743
:10065000BB275C016D01AE28BF28C02AD12AA21693
:10066000B306C406D50660F525966CAD7DAD8EAD9E
:100670009FAD2597615070408040904025966CAFAB
:100680007DAF8EAF9FAF2597A20CB31CC41CD51CA9
:10069000A214B304C404D50498F0A216B306C40689
:1006A000D50670F4615070408040904025966CAF44
:1006B0007DAF8EAF9FAF2597A20CB31CC41CD51C79
:1006C000A21AB30AC40AD50AC601B501A40193014E
:1006D0000E945F307B018C01C601B501A40193012A
:1006E0000E945F30C901DA013C014D01C401B30130
:1006F00021962CAD3DAD4EAD5FAD21970E949C3053
:100700009B01AC018701FF24EE2489A59AA5ABA526
:10071000BCA5A070B07057016801A82AB92ACA2ADE
:10072000DB2AA216B306C406D506E0F408946108D5
:10073000710881089108A20CB31CC41CD51CA2141A
:10074000B304C404D50470F0A216B306C406D506DB
:1007500048F408946108710881089108A20CB31C40
:10076000C41CD51C8DA59EA5AFA5B8A96F960FACCE
:100770006F9704C0880F991FAA1FBB1F0A94D2F756
:100780008DA79EA7AFA7B8ABA21AB30AC40AD50A11
:100790002596ECACFDAC0EAD1FAD2597D701992782
:1007A0008827682A792A8A2A9B2A820122273327C6
:1007B00029960CAF1DAF2EAF3FAF2997A201910133
:1007C000407050702D962CAF3DAF4EAF5FAF2D9760
:1007D000C601B50129962CAD3DAD4EAD5FAD299753
:1007E0000E945F307B018C01C601B50129962CADBA
:1007F0003DAD4EAD5FAD29970E945F30C901DA0172
:1008000061968CAF9DAFAEAFBFAF6197BC01CD011C
:100810002D962CAD3DAD4EAD5FAD2D970E949C3019
:100820009B01AC018701FF24EE24ADA4BEA4CFA49C
:10083000D8A8C601AA27BB2757016801A82AB92A48
:10084000CA2ADB2AA216B306C406D50660F561964D
:100850006CAD7DAD8EAD9FAD6197615070408040B5
:10086000904061966CAF7DAF8EAF9FAF6197A20C49
:10087000B31CC41CD51CA214B304C404D50498F042
:10088000A216B306C406D50670F4615070408040CD
:10089000904061966CAF7DAF8EAF9FAF6197A20C19
:1008A000B31CC41CD51CA21AB30AC40AD50AC601BB
:1008B000B50129962CAD3DAD4EAD5FAD29970E9497
:1008C0005F307B018C01C601B50129962CAD3DAD91
:1008D0004EAD5FAD29970E945F30C901DA015C011E
:1008E0006D01C601B5012D962CAD3DAD4EAD5FAD90
:1008F0002D970E949C309B01AC018701FF24EE24C0
:100900008DA59EA5AFA5B8A9A070B070E82AF92A58
:100910000A2B1B2BE216F30604071507C0F40894F4
:10092000A108B108C108D108E20CF31C041D151D73
:10093000E214F3040405150550F0E216F30604076B
:10094000150728F40894A108B108C108D1086196D8
:10095000ECACFDAC0EAD1FAD6197D7019927882790
:1009600096018501082B192B2A2B3B2B09AB1AABBF
:100970002BAB3CAB62C26E147F048006910608F478
:1009800051C220E0E21620E0F20621E0020720E05A
:10099000120788F43FEFE316F1040105110531F069
:1009A00028F048E050E060E070E017C040E050E020
:1009B00060E070E012C040E0E41640E0F40640E081
:1009C000040741E0140728F048E150E060E070E0DF
:1009D00004C040E150E060E070E0D801C701042E9F
:1009E00004C0B695A795979587950A94D2F7895A2A
:1009F0009D4FDC012C9130E2A32EB12CC12CD12CC7
:100A0000D601C501841B950BA60BB70B821B910960
:100A1000A109B1090097A105B10589F4E614F7040D
:100A20000805190508F4F2C16DA47EA48FA498A846
:100A3000621473048404950408F0E8C1F3C16E964F
:100A40008FAF6E97082E04C0EE0CFF1C001F111F05
:100A50000A94D2F76A2D681BD201C101062E04C088
:100A6000B695A795979587950A94D2F75C016D0185
:100A7000AE28BF28C02AD12AADA2BEA2CFA2D8A636
:100A8000720161016E960FAC6E9704C0CC0CDD1C38
:100A9000EE1CFF1C0A94D2F7C9A2DAA2EBA2FCA2B8
:100AA00064015301062E04C0D694C794B794A7944A
:100AB0000A94D2F7D401C3016E960FAC6E9704C0AE
:100AC000880F991FAA1FBB1F0A94D2F7EDA4FEA49A
:100AD0000FA518A904C016950795F794E7946A9591
:100AE000D2F737014801682A792A8A2A9B2A6D8E13
:100AF0007E8E8F8E98A2EDA0FEA00FA118A53801C2
:100B000088249924980187012070307065960CAF75
:100B10001DAF2EAF3FAF6597C601B501A40193018C
:100B20000E945F307B018C01C601B501A4019301D5
:100B30000E945F30C901DA011C012D01C201B1011F
:100B400065962CAD3DAD4EAD5FAD65970E949C3076
:100B50009B01AC018701FF24EE24AD8CBE8CCF8CB1
:100B6000D8A0C601AA27BB2757016801A82AB92A1D
:100B7000CA2ADB2AA216B306C406D50600F50894D5
:100B80002108310841085108EDA0FEA00FA118A5C9
:100B9000AE0CBF1CC01ED11EAE14BF04C006D106D1
:100BA00070F0A216B306C406D50648F408942108CE
:100BB000310841085108AE0CBF1CC01ED11EA21A3C
:100BC000B30AC40AD50AC601B501A40193010E9463
:100BD0005F307B018C01C601B501A40193010E9425
:100BE0005F30C901DA013C014D01C401B3016596D2
:100BF0002CAD3DAD4EAD5FAD65970E949C309B0125
:100C0000AC018701FF24EE248D8D9E8DAF8DB8A1A0
:100C1000A070B07057016801A82AB92ACA2ADB2A35
:100C2000A216B306C406D50600F50894610871083B
:100C3000810891086DA17EA18FA198A5A60EB71E6F
:100C4000C81ED91EA616B706C806D90670F0A21689
:100C5000B306C406D50648F40894610871088108F3
:100C60009108A60EB71EC81ED91ED601C501821B4B
:100C7000930BA40BB50B898F9A8FAB8FBC8FD101CF
:100C80009927882764015301A82AB92ACA2ADB2A8E
:100C9000A9AABAAACBAADCAA860175012FEF3FEF59
:100CA00040E050E0E222F32204231523A601662748
:100CB00077276D964CAF5DAF6EAF7FAF6D97A9A0F4
:100CC000BAA0CBA0DCA06FEF7FEF80E090E0A6227F
:100CD000B722C822D92289A19AA1ABA1BCA11D012A
:100CE00044245524C801B701A60195010E949C30F7
:100CF00069966CAF7DAF8EAF9FAF6997C801B701A2
:100D0000A20191010E949C303B014C016D966CAD9B
:100D10007DAD8EAD9FAD6D97A60195010E949C3073
:100D20007B018C016D966CAD7DAD8EAD9FAD6D97E9
:100D3000A20191010E949C305B016C01A801970106
:100D4000260D371D481D591D69966CAC7DAC8EACC7
:100D50009FAC6997C401AA27BB27280F391F4A1FD8
:100D60005B1F2E153F054007510748F4E12CF12C7D
:100D700061E0062F112DAE0CBF1CC01ED11ECA0192
:100D8000AA27BB27BC01CD016A0D7B1D8C1D9D1DB3
:100D9000698C7A8C8B8C9C8C6616770688069906F3
:100DA00040F1661577058805990509F043C0D9011A
:100DB0009927882769962CAD3DAD4EAD5FAD6997FB
:100DC00040705070820F931FA41FB51F2DA53EA524
:100DD0004FA558A96E960FAC6E9704C0220F331F13
:100DE000441F551F0A94D2F7281739074A075B0793
:100DF00008F509A91AA92BA93CA9015010402040C7
:100E0000304009AB1AAB2BAB3CAB14C06624772443
:100E1000430121E030E040E050E029AB3AAB4BAB7E
:100E20005CAB0BC066247724430119AA1AAA1BAA3B
:100E30001CAA03C0662477244301FE01719688E052
:100E4000DF011D928A95E9F7A9A8BAA8CBA8DCA86A
:100E5000A98ABA8ACB8ADC8A6D8A7E8A8F8A988E22
:100E600029A93A894B895C89662D7E898F89988D5D
:100E7000C25ADF4FE2E10C94D730ABE5B0E0E3E4D7
:100E8000F7E00C94BB30A8E04E010894811C911C43
:100E9000F4016A2E11926A94E9F729833A834B830D
:100EA0005C836D837E838F839887CE010996FC01D6
:100EB0001192AA95E9F7A986BA86CB86DC86ED86DB
:100EC000FE860F87188B29843A844B845C84AD841A
:100ED000BE84CF84D88829813A814B815C81699610
:100EE0002FAF69976A963FAF6A976B964FAF6B9734
:100EF0006C965FAF6C976C966CAC7DAC8EAC9FAC17
:100F00006C9769AA7AAA8BAA9CAA6D817E818F812F
:100F100098853B014C016DAA7EAA8FAA98AEA114B8
:100F2000B104C104D10409F004C36214730484043D
:100F3000950408F000C100E0201600E0300601E052
:100F4000400600E0500688F41FEF211631044104EA
:100F5000510439F030F088E0E82EF12C012D112DEC
:100F600018C0EE24FF24870114C040E0241640E09E
:100F7000340640E0440641E0540630F0B8E1EB2E80
:100F8000F12C012D112D05C0A0E1EA2EF12C012D2F
:100F9000112DD201C1010E2C04C0B695A7959795CD
:100FA00087950A94D2F7895A9D4FDC012C9180E2F3
:100FB00090E0A0E0B0E08E199F09A00BB10B5C019E
:100FC0006D01A21AB108C108D108A9AEBAAECBAE64
:100FD000DCAEA114B104C104D10409F43FC069AD71
:100FE000062E04C0220C331C441C551C0A94D2F754
:100FF000A4019301062E04C0220F331F441F551F66
:101000000A94D2F780E290E08A199B096C96CCACE6
:10101000DDACEEACFFAC6C9704C0F694E794D794CB
:10102000C7948A95D2F787017601E22AF32A042B26
:10103000152BEDAAFEAA0FAB18AF6C968CAD9DAD2B
:10104000AEADBFAD6C9704C0880F991FAA1FBB1F20
:101050006A95D2F789AB9AABABABBCAB32018824B3
:101060009924B201A1016070707021964CAF5DAF00
:101070006EAF7FAF21976DA97EA98FA998ADA4010E
:1010800093010E945F307B018C016DA97EA98FA91D
:1010900098ADA40193010E945F30CA01B901219665
:1010A0002CAD3DAD4EAD5FAD21970E949C309B01B4
:1010B000AC018701FF24EE24A9A8BAA8CBA8DCA81C
:1010C000C601AA27BB2757016801A82AB92ACA2A3C
:1010D000DB2AA216B306C406D50690F4A20CB31CF4
:1010E000C41CD51CA214B304C404D50448F0A21631
:1010F000B306C406D50620F4A20CB31CC41CD51C30
:10110000A21AB30AC40AD50AC601B501A401930103
:101110000E945F307B018C01C601B501A4019301DF
:101120000E945F30CA01B90121962CAD3DAD4EAD94
:101130005FAD2197BAC1211431044104510471F407
:1011400061E070E080E090E020E030E040E050E0DE
:101150000E945F30C901DA011C012D0100E0201658
:1011600000E0300601E0400600E0500688F41FEF82
:10117000211631044104510439F030F068E0E62EC4
:10118000F12C012D112D18C0EE24FF24870114C06D
:1011900040E0241640E0340640E0440641E05406B6
:1011A00030F058E1E52EF12C012D112D05C040E164
:1011B000E42EF12C012D112DD201C1010E2C04C001
:1011C000B695A795979587950A94D2F7895A9D4F1A
:1011D000DC012C9130E2A32EB12CC12CD12CD601F4
:1011E000C5018E199F09A00BB10B7C018D01E21A7C
:1011F000F10801091109E9AEFAAE0BAF1CAFE11419
:10120000F1040105110539F464015301A218B30872
:10121000C408D508E2C0F9AC6896FFAE68970F2CF9
:1012200004C0220C331C441C551C0A94D2F78A2D8E
:101230008F1964015301082E04C0D694C794B79443
:10124000A7940A94D2F7A401930104C0220F331F7C
:10125000441F551FFA94D2F76C966CAC7DAC8EACE3
:101260009FAC6C9704C096948794779467948A9502
:10127000D2F784017301E22AF32A042B152BEDA681
:10128000FEA60FA718AB320188249924B201A10150
:101290006070707025964CAF5DAF6EAF7FAF2597D5
:1012A000C601B501A40193010E945F307B018C014E
:1012B000C601B501A40193010E945F30CA01B901C2
:1012C00025962CAD3DAD4EAD5FAD25970E949C306F
:1012D0009B01AC018701FF24EE24ADA4BEA4CFA4E2
:1012E000D8A8C601AA27BB275C016D01AE28BF287C
:1012F000C02AD12AA216B306C406D50690F4A20CC1
:10130000B31CC41CD51CA214B304C404D50448F0F7
:10131000A216B306C406D50620F4A20CB31CC41C46
:10132000D51CA21AB30AC40AD50AC601B501A40184
:1013300093010E945F307B018C01C601B501A401BD
:1013400093010E945F30CA01B90125962CAD3DADD5
:101350004EAD5FAD25970E949C309B01AC0187018B
:10136000FF24EE248DA59EA5AFA5B8A9A070B070EE
:1013700057016801A82AB92ACA2ADB2AA216B3068D
:10138000C406D50690F4A20CB31CC41CD51CA21430
:10139000B304C404D50448F0A216B306C406D506A7
:1013A00020F4A20CB31CC41CD51C6C96ECACFDAC98
:1013B0000EAD1FAD6C9768960FAC689704C0EE0C2D
:1013C000FF1C001F111F0A94D2F7E9AAFAAA0BAB5F
:1013D0001CABA21AB30AC40AD50A32018824992484
:1013E000B201A1016070707029964CAF5DAF6EAF15
:1013F0007FAF2997C601B501A40193010E945F3018
:101400007B018C01C601B501A40193010E945F30EC
:10141000CA01B90129962CAD3DAD4EAD5FAD2997FE
:101420000E949C309B01AC018701FF24EE24A9A8F7
:10143000BAA8CBA8DCA8C601AA27BB275701680118
:10144000A82AB92ACA2ADB2AA216B306C406D506D8
:1014500090F4A20CB31CC41CD51CA214B304C40485
:10146000D50448F0A216B306C406D50620F4A20C93
:10147000B31CC41CD51CA21AB30AC40AD50AC601DF
:10148000B501A40193010E945F307B018C01C6016C
:10149000B501A40193010E945F30CA01B9012996E8
:1014A0002CAD3DAD4EAD5FAD29970E949C309B01A8
:1014B000AC018701FF24EE2489A99AA9ABA9BCA994
:1014C000A070B070E82AF92A0A2B1B2BE216F3064B
:1014D0000407150790F4E20CF31C041D151DE2141B
:1014E000F3040405150548F0E216F3060407150792
:1014F00020F4E20CF31C041D151DE21AF30A040B80
:10150000150BD801C70109AC04C0B695A7959795EE
:1015100087950A94D2F7898B9A8BAB8BBC8B1D8AEB
:101520001E8A1F8A188E282F3A894B895C896D89FB
:101530000CC36A147B048C049D0408F409C300E006
:10154000A01600E0B00601E0C00600E0D00688F476
:101550001FEFA116B104C104D10439F030F028E026
:10156000E22EF12C012D112D18C0EE24FF2487014D
:1015700014C040E0A41640E0B40640E0C40641E0D8
:10158000D40630F098E1E92EF12C012D112D05C083
:1015900080E1E82EF12C012D112DD601C5010E2C74
:1015A00004C0B695A795979587950A94D2F7895A5E
:1015B0009D4FDC012C9180E290E0A0E0B0E08E191C
:1015C0009F09A00BB10B821B9109A109B1090097DA
:1015D000A105B10509F04FC0A614B704C804D90489
:1015E00058F06C96ECACFDAC0EAD1FAD6C97E214F0
:1015F000F3040405150568F16C96ECACFDAC0EAD7A
:101600001FAD6C97E218F30804091509A4019301B2
:101610002A193B094C095D09AA24BB2465016C9673
:101620006CAD7DAD8EAD9FAD6C976E157F0580075F
:10163000910728F4B1E0AB2EB12CC12CD12CDA01EA
:10164000C9018A199B09AC09BD098DAB9EABAFAB33
:10165000B8AFE98AFA8A0B8B1C8B6DA87EA88FA87D
:1016600098AC6D8A7E8A8F8A988E2E2D3A894B8906
:101670005C896DA96AC267968FAF6797A6019501CD
:10168000082E04C0220F331F441F551F0A94D2F79F
:10169000A0E2AA2EA81A6696AFAE6697D201C10143
:1016A00004C0B695A79597958795AA94D2F76C0133
:1016B0007D01C22AD32AE42AF52AC9A6DAA6EBA616
:1016C000FCA68201710167960FAC679704C0EE0C0F
:1016D000FF1C001F111F0A94D2F7EDA2FEA20FA358
:1016E00018A76401530166960FAC669704C0D694A0
:1016F000C794B794A7940A94D2F7A401930167966C
:101700000FAC679704C0220F331F441F551F0A9464
:10171000D2F76C968CAD9DADAEADBFAD6C976696B5
:101720000FAC669704C0B695A795979587950A94D0
:10173000D2F73C014D01622A732A842A952A69A2B4
:101740007AA28BA29CA26C96ECACFDAC0EAD1FAD48
:101750006C9767960FAC679704C0EE0CFF1C001FD8
:10176000111F0A94D2F7ED8EFE8E0F8F18A349A594
:101770005AA56BA57CA53B018824992460707070E4
:101780002D964CAF5DAF6EAF7FAF2D97C601B50103
:10179000A40193010E945F307B018C01C601B50159
:1017A000A40193010E945F30C901DA011C012D01DF
:1017B000C201B1012D962CAD3DAD4EAD5FAD2D9763
:1017C0000E949C309B01AC018701FF24EE24A9A05C
:1017D000BAA0CBA0DCA0C601AA27BB27570168018D
:1017E000A82AB92ACA2ADB2AA216B306C406D50635
:1017F00000F508942108310841085108E9A4FAA429
:101800000BA51CA5AE0CBF1CC01ED11EAE14BF0480
:10181000C006D10670F0A216B306C406D50648F479
:1018200008942108310841085108AE0CBF1CC01EA5
:10183000D11EA21AB30AC40AD50AC601B501A40171
:1018400093010E945F307B018C01C601B501A401A8
:1018500093010E945F30C901DA013C014D01C401CE
:10186000B3012D962CAD3DAD4EAD5FAD2D970E94D1
:101870009C309B01AC018701FF24EE2489A19AA131
:10188000ABA1BCA1A070B07057016801A82AB92A09
:10189000CA2ADB2AA216B306C406D50600F50894A8
:1018A000610871088108910869A57AA58BA59CA596
:1018B000A60EB71EC81ED91EA616B706C806D9069C
:1018C00070F0A216B306C406D50648F40894610861
:1018D000710881089108A60EB71EC81ED91ED60130
:1018E000C501821B930BA40BB50B898F9A8FAB8F0D
:1018F000BC8FD1019927882784017301E82AF92A2E
:101900000A2B1B2B4FEFA42E4FEFB42EC12CD12C42
:10191000AE20BF20C022D1227801002711276DA060
:101920007EA08FA098A44FEF5FEF60E070E064228C
:101930007522862297228DA19EA1AFA1B8A5BD01D7
:101940008827992765966CAF7DAF8EAF9FAF65975F
:10195000C601B501A40193010E949C3061966CAF51
:101960007DAF8EAF9FAF6197C601B50165962CAD77
:101970003DAD4EAD5FAD65970E949C301B012C01C3
:10198000C801B701A40193010E949C305B016C0166
:10199000C801B70165962CAD3DAD4EAD5FAD659705
:1019A0000E949C307B018C01A6019501220D331D04
:1019B000441D551D61966CAC7DAC8EAC9FAC61979F
:1019C000C401AA27BB27280F391F4A1F5B1F2A15EE
:1019D0003B054C055D0548F4812C912CE1E0AE2ED1
:1019E000B12CE80CF91C0A1D1B1DCA01AA27BB2734
:1019F00057016801A80EB91ECA1EDB1EA9013327B4
:101A0000222761968CAD9DADAEADBFAD6197A07044
:101A1000B070280F391F4A1F5B1FE98CFA8C0B8DA1
:101A20001C8DEA14FB040C051D0570F0AE14BF04F8
:101A3000C006D10669F56D8D7E8D8F8D98A16217D8
:101A400073078407950720F5DA01C9016DA07EA010
:101A50008FA098A486199709A809B909E9A4FAA43E
:101A60000BA51CA5AE18BF08C00AD10AEE24FF249E
:101A70008701281739074A075B0728F421E0E22E7F
:101A8000F12C012D112DAE18BF08C00AD10A02C0D9
:101A9000DA01C9016D8C7E8C8F8C98A0681A790A46
:101AA0008A0A9B0A498D5A8D6B8D7C8D4A195B0978
:101AB0006C097D095A016B012224332421016D8DAB
:101AC0007E8D8F8D98A1661577058805990528F478
:101AD00081E0282E312C412C512C86017501E21811
:101AE000F30804091509A801970166960FAC6697DB
:101AF00004C0220F331F441F551F0A94D2F7D4018C
:101B0000C30167960FAC679704C0B695A7959795E4
:101B100087950A94D2F7282B392B4A2B5B2B298BDC
:101B20003A8B4B8B5C8B67960FAC679704C016950E
:101B30000795F794E7940A94D2F7ED8AFE8A0F8B03
:101B4000188F3A894B895C896E2D7E898F89988D93
:101B5000C55ADF4FE2E10C94D730DF93CF930F9259
:101B6000CDB7DEB71982AAE2B0E0EAE2F0E0808108
:101B700080688C93AAE2B0E0EAE2F0E080818062C3
:101B80008C93AAE2B0E0EAE2F0E080818B7F8C9354
:101B90008981806889838981826089838981846061
:101BA000898389818F7B898389818F7E89838981DC
:101BB0008F7D89838981877F8983E0E4F0E0898153
:101BC0008083E9E2F0E083E38083AAE2B0E0EAE226
:101BD000F0E0808180618C93AAE2B0E0EAE2F0E07C
:101BE000808188608C930F90CF91DF910895DF936F
:101BF000CF930F92CDB7DEB78983ECE2F0E0898115
:101C000080830F90CF91DF910895DF93CF93CDB76D
:101C1000DEB7ECE2F0E08081CF91DF9108951F9272
:101C20000F920FB60F9211242F933F934F935F9310
:101C30006F937F938F939F93AF93BF93EF93FF9394
:101C4000DF93CF93CDB7DEB7E0910505F0910605A0
:101C50000995CF91DF91FF91EF91BF91AF919F9146
:101C60008F917F916F915F914F913F912F910F9045
:101C70000FBE0F901F9018951F920F920FB60F92E4
:101C800011242F933F934F935F936F937F938F9381
:101C90009F93AF93BF93EF93FF93DF93CF93CDB712
:101CA000DEB7E0910305F09104050995CF91DF912E
:101CB000FF91EF91BF91AF919F918F917F916F9124
:101CC0005F914F913F912F910F900FBE0F901F90FA
:101CD00018951F920F920FB60F921124DF93CF9396
:101CE000CDB7DEB7CF91DF910F900FBE0F901F9051
:101CF0001895DF93CF9300D0CDB7DEB79A83898351
:101D000089819A8190930405809303050F900F9029
:101D1000CF91DF910895DF93CF9300D0CDB7DEB799
:101D20009A83898389819A8190930605809305051A
:101D30000F900F90CF91DF910895DF93CF93CDB7A0
:101D4000DEB7AAE2B0E0EAE2F0E080818F7D8C931A
:101D5000CF91DF910895DF93CF93CDB7DEB7AAE29D
:101D6000B0E0EAE2F0E0808180628C93CF91DF9175
:101D70000895DF93CF9300D0CDB7DEB79A838983E0
:101D8000E981FA8180818823B1F4A0E4B0E0E0E445
:101D9000F0E080818D7F8C93A0E4B0E0E0E4F0E09F
:101DA00080818B7F8C93AAE2B0E0EAE2F0E0808150
:101DB0008B7F8C936BC0E981FA8180818130B1F493
:101DC000A0E4B0E0E0E4F0E0808182608C93A0E4E5
:101DD000B0E0E0E4F0E080818B7F8C93AAE2B0E099
:101DE000EAE2F0E080818B7F8C9350C0E981FA8138
:101DF00080818230B1F4A0E4B0E0E0E4F0E08081E2
:101E00008D7F8C93A0E4B0E0E0E4F0E0808184601A
:101E10008C93AAE2B0E0EAE2F0E080818B7F8C93C1
:101E200035C0E981FA8180818330B1F4A0E4B0E06B
:101E3000E0E4F0E0808182608C93A0E4B0E0E0E434
:101E4000F0E0808184608C93AAE2B0E0EAE2F0E006
:101E500080818B7F8C931AC0E981FA8180818430E4
:101E6000A9F4A0E4B0E0E0E4F0E0808182608C932B
:101E7000A0E4B0E0E0E4F0E0808184608C93AAE22A
:101E8000B0E0EAE2F0E0808184608C93E981FA813D
:101E90008181882379F4A0E4B0E0E0E4F0E080817F
:101EA0008F7E8C93A0E4B0E0E0E4F0E080818F7D51
:101EB0008C9327C0E981FA818181813079F4A0E493
:101EC000B0E0E0E4F0E080818F7E8C93A0E4B0E0AD
:101ED000E0E4F0E0808180628C9313C0E981FA81B4
:101EE0008181823071F4A0E4B0E0E0E4F0E0808130
:101EF00080618C93A0E4B0E0E0E4F0E08081806257
:101F00008C93E981FA818281882341F4A0E4B0E0D6
:101F1000E0E4F0E08081877F8C930CC0E981FA8156
:101F20008281813039F4A0E4B0E0E0E4F0E0808127
:101F300088608C93E981FA8183818823B1F4AAE2D5
:101F4000B0E0EAE2F0E080818F778C93AAE2B0E023
:101F5000EAE2F0E080818F7D8C93AAE2B0E0EAE2D1
:101F6000F0E080818F7B8C931AC0E981FA818381B4
:101F70008130A9F4AAE2B0E0EAE2F0E08081806872
:101F80008C93AAE2B0E0EAE2F0E0808180628C9378
:101F9000AAE2B0E0EAE2F0E0808180648C93E9811B
:101FA000FA818781813041F4A0E4B0E0E0E4F0E020
:101FB00080818F7B8C930CC0E981FA818781882393
:101FC00039F4A0E4B0E0E0E4F0E0808180648C9338
:101FD000E981FA8180858130C1F4ABE2B0E0EBE2C7
:101FE000F0E0808182608C93A9E2B0E0E981FA811F
:101FF000848195818C93A0E4B0E0E981FA818481A9
:102000009581892F99278C931DC0E981FA8180855C
:102010008823C1F4ABE2B0E0EBE2F0E080818D7F99
:102020008C93A9E2B0E0E981FA8186818C93A0E4E7
:10203000B0E0E981FA818681882F90E0892F990F9D
:10204000990B8C930F900F90CF91DF910895DF93B0
:10205000CF9300D0CDB7DEB79A838983AAE2B0E0F0
:10206000EAE2F0E0808180618C93AAE2B0E0EAE2EB
:10207000F0E0808188608C930F900F90CF91DF917A
:102080000895DF93CF9300D0CDB7DEB79A838983CD
:10209000AAE2B0E0EAE2F0E080818F7E8C93AAE2CF
:1020A000B0E0EAE2F0E08081877F8C930F900F90A0
:1020B000CF91DF910895DF93CF930F92CDB7DEB725
:1020C0008983EBE2F0E08081829586958770882F86
:1020D00090E0817090700097A1F3ECE2F0E08981CC
:1020E00080830F90CF91DF910895DF93CF930F926C
:1020F000CDB7DEB7EBE2F0E08081881F8827881F2C
:102100008130C1F7ECE2F0E080818983ABE2B0E09E
:10211000EBE2F0E080818F778C9389810F90CF91F3
:10212000DF910895DF93CF9300D0CDB7DEB79A83C8
:1021300089830BC0E981FA81208189819A81019686
:102140009A838983822F0E945B10E981FA818081C2
:10215000882381F70F900F90CF91DF910895DF933F
:10216000CF930F92CDB7DEB7ECE2F0E080818983A8
:10217000ABE2B0E0EBE2F0E080818F778C930F90E0
:10218000CF91DF910895DF93CF9300D000D0CDB7EA
:10219000DEB79A83898389819A81009709F488C27E
:1021A000E981FA818081282F30E03C832B838B8169
:1021B0009C818330910509F427C12B813C81243017
:1021C00031058CF48B819C818130910509F470C0BC
:1021D0002B813C81223031050CF0BDC08B819C816C
:1021E0000097A1F065C22B813C812530310509F4AF
:1021F000BEC18B819C81853091050CF45FC12B8120
:102200003C812630310509F404C252C2A3E5B0E096
:10221000E3E5F0E08081877B8C93E981FA8182811C
:10222000813049F4A9E5B0E0E9E5F0E080818C7FF8
:1022300081608C933DC2E981FA818281882309F013
:1022400037C2E981FA818381882341F4A3E5B0E0B4
:10225000E3E5F0E080818F7C8C932AC2E981FA81EA
:102260008381813049F4A3E5B0E0E3E5F0E08081CB
:102270008F7C80618C931CC2E981FA8183818230DA
:1022800049F4A3E5B0E0E3E5F0E080818F7C806273
:102290008C930EC2E981FA818381833009F008C2F0
:1022A000A3E5B0E0E3E5F0E0808180638C9300C2B9
:1022B000A3E5B0E0E3E5F0E08081877B88608C9364
:1022C000E981FA818281813049F4A9E5B0E0E9E54C
:1022D000F0E080818C7F82608C93EAC1E981FA8191
:1022E0008281882309F0E4C1E981FA81838188230E
:1022F00041F4A3E5B0E0E3E5F0E080818F7C8C93CE
:10230000D7C1E981FA818381813049F4A3E5B0E046
:10231000E3E5F0E080818F7C80618C93C9C1E98125
:10232000FA818381823049F4A3E5B0E0E3E5F0E08F
:1023300080818F7C80628C93BBC1E981FA8183812B
:10234000833009F0B5C1A3E5B0E0E3E5F0E08081BA
:1023500080638C93ADC1AFE4B0E0EFE4F0E0808146
:102360008C7F8C93AEE4B0E0EEE4F0E08081877E79
:102370008C93E981FA818281813049F4A9E5B0E04A
:10238000E9E5F0E08081837C84608C9391C1E981F0
:10239000FA818281882309F08BC1E981FA818381E6
:1023A000882341F4AFE4B0E0EFE4F0E080818F7C7B
:1023B0008C937EC1E981FA818381813049F4AFE455
:1023C000B0E0EFE4F0E080818F7C80618C9370C19D
:1023D000E981FA818381823049F4AFE4B0E0EFE42F
:1023E000F0E080818F7C80628C9362C1E981FA8108
:1023F0008381833009F05CC1AFE4B0E0EFE4F0E04A
:10240000808180638C9354C1AFE4B0E0EFE4F0E0EE
:1024100080818C7F8C93AEE4B0E0EEE4F0E08081CC
:10242000877E88608C93E981FA818281813049F4CA
:10243000A9E5B0E0E9E5F0E08081837C88618C93D8
:1024400037C1E981FA818281882309F031C1E981AC
:10245000FA818381882341F4AFE4B0E0EFE4F0E057
:1024600080818F7C8C9324C1E981FA8183818130C2
:1024700049F4AFE4B0E0EFE4F0E080818F7C80616C
:102480008C9316C1E981FA818381823049F4AFE4EB
:10249000B0E0EFE4F0E080818F7C80628C9308C133
:1024A000E981FA818381833009F002C1AFE4B0E0B1
:1024B000EFE4F0E0808180638C93FAC0AFE4B0E099
:1024C000EFE4F0E080818C7F8C93AEE4B0E0EEE44A
:1024D000F0E0808188618C93E981FA81828181308A
:1024E00049F4A9E5B0E0E9E5F0E08081837C88610A
:1024F0008C93DEC0E981FA818281882309F0D8C0FB
:10250000E981FA818381882341F4AFE4B0E0EFE40C
:10251000F0E080818F7C8C93CBC0E981FA8183814C
:10252000813049F4AFE4B0E0EFE4F0E080818F7CEB
:1025300080618C93BDC0E981FA818381823049F446
:10254000AFE4B0E0EFE4F0E080818F7C80628C93B8
:10255000AFC0E981FA818381833009F0A9C0AFE47B
:10256000B0E0EFE4F0E0808180638C93A1C0A5E44B
:10257000B0E0E5E4F0E08081877B8C93E981FA812B
:102580008281813049F4A9E5B0E0E9E5F0E080819D
:102590008F7380648C938CC0E981FA818281882357
:1025A00009F086C0E981FA818381882341F4A5E49A
:1025B000B0E0E5E4F0E080818F7C8C9379C0E98124
:1025C000FA818381813049F4A5E4B0E0E5E4F0E0EC
:1025D00080818F7C80618C936BC0E981FA818381DB
:1025E000823049F4A5E4B0E0E5E4F0E080818F7C3E
:1025F00080628C935DC0E981FA818381833009F028
:1026000057C0A5E4B0E0E5E4F0E0808180638C93FE
:102610004FC0A5E4B0E0E5E4F0E08081877B8C93D7
:10262000E981FA818281813049F4A9E5B0E0E9E5E8
:10263000F0E080818F7380688C933AC0E981FA81E1
:1026400082818823A9F5E981FA818381882341F475
:10265000A5E4B0E0E5E4F0E080818F7C8C9328C0B5
:10266000E981FA818381813049F4A5E4B0E0E5E4B1
:10267000F0E080818F7C80618C931AC0E981FA81BF
:102680008381823049F4A5E4B0E0E5E4F0E08081A4
:102690008F7C80628C930CC0E981FA8183818330C6
:1026A00039F4A5E4B0E0E5E4F0E0808180638C9348
:1026B0000F900F900F900F90CF91DF910895DF93BF
:1026C000CF93CDB7DEB72A970FB6F894DEBF0FBE13
:1026D000CDBF9A83898389819A81009709F498C133
:1026E000E981FA818081282F30E03A87298789851E
:1026F0009A858530910564F429853A852230310523
:102700000CF08BC089859A8599230CF481C107C090
:1027100029853A85273031050CF07AC1FCC0E98162
:10272000FA818181282F30E038872F838F81988527
:102730008330910509F445C02F8138852430310557
:102740007CF48F8198858130910549F12F813885FE
:10275000223031056CF58F8198850097C1F058C102
:102760002F8138852530310509F43DC08F8198854A
:10277000853091057CF12F81388526303105E1F1D6
:102780008F8198858730910509F43FC041C1A3E549
:10279000B0E0E3E5F0E08081887F8C9339C1A3E568
:1027A000B0E0E3E5F0E08081887F81608C9330C108
:1027B000A3E5B0E0E3E5F0E08081887F82608C9360
:1027C00027C1A3E5B0E0E3E5F0E08081887F836086
:1027D0008C931EC1A3E5B0E0E3E5F0E08081887F43
:1027E00084608C9315C1A3E5B0E0E3E5F0E080815F
:1027F000887F85608C930CC1A3E5B0E0E3E5F0E051
:102800008081887F86608C9303C1A3E5B0E0E3E517
:10281000F0E0808187608C93FBC0E981FA8181813F
:10282000282F30E03E832D838D819E81833091055A
:1028300009F445C02D813E81243031057CF48D8121
:102840009E818130910549F12D813E8122303105F3
:102850006CF58D819E810097C1F0DAC02D813E819B
:102860002530310509F43DC08D819E81853091056B
:102870007CF12D813E8126303105E1F18D819E81F3
:102880008730910509F43FC0C3C0AEE4B0E0EEE488
:10289000F0E08081887F8C93BBC0AEE4B0E0EEE4D2
:1028A000F0E08081887F81608C93B2C0AEE4B0E0BC
:1028B000EEE4F0E08081887F82608C93A9C0AEE472
:1028C000B0E0EEE4F0E08081887F83608C93A0C06C
:1028D000AEE4B0E0EEE4F0E08081887F84608C9329
:1028E00097C0AEE4B0E0EEE4F0E08081887F8560E0
:1028F0008C938EC0AEE4B0E0EEE4F0E08081887F9F
:1029000086608C9385C0AEE4B0E0EEE4F0E08081B8
:1029100087608C937DC0E981FA818181282F30E026
:102920003C832B838B819C818330910509F44EC0BD
:102930002B813C81243031057CF48B819C8181305A
:10294000910549F12B813C81223031056CF58B8159
:102950009C810097C1F05CC02B813C812530310502
:1029600009F44FC08B819C81853091050CF440C0E7
:102970002B813C812830310501F18B819C8189308C
:10298000910569F145C0A5E4B0E0E5E4F0E080819F
:10299000887F8C933DC0A5E4B0E0E5E4F0E0808161
:1029A000887F81608C9334C0A5E4B0E0E5E4F0E07A
:1029B0008081887F82608C932BC0A5E4B0E0E5E441
:1029C000F0E08081887F83608C9322C0A5E4B0E032
:1029D000E5E4F0E08081887F84608C9319C0A5E4F1
:1029E000B0E0E5E4F0E08081887F85608C9310C0E2
:1029F000A5E4B0E0E5E4F0E08081887F86608C9318
:102A000007C0A5E4B0E0E5E4F0E0808187608C9346
:102A10002A960FB6F894DEBF0FBECDBFCF91DF91DF
:102A20000895DF93CF9300D000D0CDB7DEB79A835F
:102A3000898389819A81009799F1E981FA8180815E
:102A4000282F30E03C832B838B819C81853091053E
:102A500054F42B813C81223031059CF48B819C8184
:102A60009923F4F006C02B813C8127303105C4F452
:102A700010C0A3E5B0E0E3E5F0E08081887F8C93AF
:102A80000FC0AEE4B0E0EEE4F0E08081887F8C938C
:102A900007C0A5E4B0E0E5E4F0E08081887F8C9396
:102AA0000F900F900F900F90CF91DF910895DF93CB
:102AB000CF9300D000D0CDB7DEB79A8389837C83D3
:102AC0006B8389819A81009779F0E981FA8180810D
:102AD000882F90E002978330910530F4E6E4F0E02F
:102AE0008B819C81918380830F900F900F900F902A
:102AF000CF91DF910895DF93CF9300D000D000D025
:102B0000CDB7DEB79A8389837C836B8389819A8171
:102B1000009761F1E981FA818081282F30E03E83BE
:102B20002D838D819E818530910554F42D813E81C8
:102B30002230310584F48D819E819923BCF006C03A
:102B40002D813E81273031058CF40CC0ECE5F0E09E
:102B50008B8180830BC0EAE4F0E08B819C819183C0
:102B6000808304C0E3E4F0E08B81808326960FB677
:102B7000F894DEBF0FBECDBFCF91DF9108951F92B5
:102B80000F920FB60F9211242F933F934F935F93A1
:102B90006F937F938F939F93AF93BF93EF93FF9325
:102BA000DF93CF9300D0CDB7DEB78CE78A838FE178
:102BB0008983809109058F5F8093090590910905AC
:102BC00089819817A1F480915703815D0E945B1061
:102BD00080E690E00E94921010920905E4E4F0E093
:102BE0008A8180838091570381508093570380911D
:102BF0005703882391F486E790E00E9492108AE0C0
:102C0000809357038EEF94E00E94111581E080932A
:102C1000080580E060E00E9445200F900F90CF9162
:102C2000DF91FF91EF91BF91AF919F918F917F9134
:102C30006F915F914F913F912F910F900FBE0F9029
:102C40001F901895DF93CF9300D000D0CDB7DEB79B
:102C50009A83898389819A81009709F42DC4E98137
:102C6000FA818081282F30E03C832B838B819C81EB
:102C70008730910509F404C22B813C81283031054D
:102C800054F58B819C818330910509F400C12B811F
:102C90003C812430310594F48B819C8181309105F5
:102CA00009F481C02B813C81223031050CF0B1C088
:102CB0008B819C81009709F43FC0FEC32B813C812E
:102CC0002530310509F45EC18B819C8186309105E8
:102CD0000CF097C11AC12B813C812B30310509F4CE
:102CE000C9C28B819C818C3091056CF42B813C8115
:102CF0002930310509F440C28B819C818A309105CD
:102D00000CF079C2FBC12B813C812D30310509F4D7
:102D10002DC38B819C818D3091050CF4E9C22B81F0
:102D20003C812E30310509F45EC38B819C818F304C
:102D3000910509F48EC3C0C3A3E5B0E0E3E5F0E07C
:102D40008081877B80648C93E981FA8182818130E4
:102D500041F4A9E5B0E0E9E5F0E0808183608C937F
:102D6000ABC3E981FA818281882309F0A5C3E98197
:102D7000FA818381813049F4A3E5B0E0E3E5F0E036
:102D800080818F7C80628C9397C3E981FA818381F3
:102D9000882309F091C3A3E5B0E0E3E5F0E080818A
:102DA00080638C9389C3A3E5B0E0E3E5F0E0808124
:102DB00088648C93E981FA818281813041F4A9E5AC
:102DC000B0E0E9E5F0E0808183608C9375C3E98130
:102DD000FA818281882309F06FC3E981FA818381B6
:102DE000813049F4A3E5B0E0E3E5F0E080818F7C39
:102DF00080628C9361C3E981FA818381882309F021
:102E00005BC3A3E5B0E0E3E5F0E0808180638C93F1
:102E100053C3AFE4B0E0EFE4F0E080818C7F8160E9
:102E20008C93AEE4B0E0EEE4F0E08081877E8C939A
:102E3000E981FA818281813041F4A9E5B0E0E9E5D8
:102E4000F0E080818C638C9337C3E981FA818281C1
:102E5000882309F031C3E981FA818381813049F403
:102E6000AFE4B0E0EFE4F0E080818F7C80628C938F
:102E700023C3E981FA818381882309F01DC3AFE46C
:102E8000B0E0EFE4F0E0808180638C9315C3AFE4A1
:102E9000B0E0EFE4F0E080818C7F82608C93AEE460
:102EA000B0E0EEE4F0E08081877E8C93E981FA81E6
:102EB0008281813041F4A9E5B0E0E9E5F0E080816C
:102EC0008C638C93F9C2E981FA818281882309F0AD
:102ED000F3C2E981FA818381813049F4AFE4B0E043
:102EE000EFE4F0E080818F7C80628C93E5C2E98121
:102EF000FA818381882309F0DFC2AFE4B0E0EFE418
:102F0000F0E0808180638C93D7C2AFE4B0E0EFE45F
:102F1000F0E0808183608C93AEE4B0E0EEE4F0E01A
:102F20008081877E8C93E981FA818281813041F4AE
:102F3000A9E5B0E0E9E5F0E080818C638C93BCC248
:102F4000E981FA818281882309F0B6C2E981FA8198
:102F50008381813049F4AFE4B0E0EFE4F0E08081B8
:102F60008F7C80628C93A8C2E981FA818381882357
:102F700009F0A2C2AFE4B0E0EFE4F0E0808180634A
:102F80008C939AC2AFE4B0E0EFE4F0E080818C7FF4
:102F900081608C93AEE4B0E0EEE4F0E08081877E67
:102FA00088608C93E981FA818281813041F4A9E5BE
:102FB000B0E0E9E5F0E080818C638C937DC2E9812B
:102FC000FA818281882309F077C2E981FA818381BD
:102FD000813049F4AFE4B0E0EFE4F0E080818F7C31
:102FE00080628C9369C2E981FA818381882309F028
:102FF00063C2AFE4B0E0EFE4F0E0808180638C93E3
:103000005BC2AFE4B0E0EFE4F0E080818C7F8260EF
:103010008C93AEE4B0E0EEE4F0E08081877E8860DF
:103020008C93E981FA818281813041F4A9E5B0E095
:10303000E9E5F0E080818C638C933EC2E981FA81FE
:103040008281882309F038C2E981FA818381813045
:1030500049F4AFE4B0E0EFE4F0E080818F7C80627F
:103060008C932AC2E981FA818381882309F024C2E2
:10307000AFE4B0E0EFE4F0E0808180638C931CC2A9
:10308000AFE4B0E0EFE4F0E0808183608C93AEE4E5
:10309000B0E0EEE4F0E08081877E88608C93E98187
:1030A000FA818281813041F4A9E5B0E0E9E5F0E000
:1030B00080818C638C9300C2E981FA8182818823AC
:1030C00009F0FAC1E981FA818381813049F4AFE4E2
:1030D000B0E0EFE4F0E080818F7C80628C93ECC103
:1030E000E981FA818381882309F0E6C1AFE4B0E089
:1030F000EFE4F0E0808180638C93DEC1AFE4B0E068
:10310000EFE4F0E080818C7F8C93AEE4B0E0EEE4FD
:10311000F0E08081877E80618C93E981FA818281F1
:10312000813041F4A9E5B0E0E9E5F0E080818C630D
:103130008C93C2C1E981FA818281882309F0BCC1E4
:10314000E981FA818381813049F4AFE4B0E0EFE4B2
:10315000F0E080818F7C80628C93AEC1E981FA813E
:103160008381882309F0A8C1AFE4B0E0EFE4F0E088
:10317000808180638C93A0C1AFE4B0E0EFE4F0E025
:1031800080818C7F81608C93AEE4B0E0EEE4F0E06F
:103190008081877E80618C93E981FA818281813090
:1031A00041F4A9E5B0E0E9E5F0E080818C638C931F
:1031B00083C1E981FA818281882309F07DC1E98197
:1031C000FA818381813049F4AFE4B0E0EFE4F0E0CC
:1031D00080818F7C80628C936FC1E981FA818381C9
:1031E000882309F069C1AFE4B0E0EFE4F0E080814A
:1031F00080638C9361C1AFE4B0E0EFE4F0E08081E4
:103200008C7F82608C93AEE4B0E0EEE4F0E08081ED
:10321000877E80618C93E981FA818281813041F4DB
:10322000A9E5B0E0E9E5F0E080818C638C9344C1CE
:10323000E981FA818281882309F03EC1E981FA811E
:103240008381813049F4AFE4B0E0EFE4F0E08081C5
:103250008F7C80628C9330C1E981FA8183818823DD
:1032600009F02AC1AFE4B0E0EFE4F0E080818063D0
:103270008C9322C1AFE4B0E0EFE4F0E080818360A2
:103280008C93AEE4B0E0EEE4F0E08081877E806174
:103290008C93E981FA818281813041F4A9E5B0E023
:1032A000E9E5F0E080818C638C9306C1E981FA81C5
:1032B0008281882309F000C1E981FA81838181300C
:1032C00049F4AFE4B0E0EFE4F0E080818F7C80620D
:1032D0008C93F2C0E981FA818381882309F0ECC0E4
:1032E000AFE4B0E0EFE4F0E0808180638C93E4C071
:1032F000AFE4B0E0EFE4F0E080818C7F82608C93FB
:10330000AEE4B0E0EEE4F0E0808188618C93E98186
:10331000FA818281813041F4A9E5B0E0E9E5F0E08D
:1033200080818C638C93C8C0E981FA818281882373
:1033300009F0C2C0E981FA818381813049F4AFE4A8
:10334000B0E0EFE4F0E080818F7C80628C93B4C0C9
:10335000E981FA818381882309F0AEC0AFE4B0E04F
:10336000EFE4F0E0808180638C93A6C0AFE4B0E02E
:10337000EFE4F0E0808183608C93AEE4B0E0EEE4B3
:10338000F0E0808188618C93E981FA8182818130CB
:1033900041F4A9E5B0E0E9E5F0E080818C638C932D
:1033A0008BC0E981FA818281882309F085C0E98197
:1033B000FA818381813049F4AFE4B0E0EFE4F0E0DA
:1033C00080818F7C80628C9377C0E981FA818381D0
:1033D000882309F071C0AFE4B0E0EFE4F0E0808151
:1033E00080638C9369C0A5E4B0E0E5E4F0E08081FF
:1033F000877B80648C93E981FA818281813041F4FA
:10340000A9E5B0E0E9E5F0E08081806C8C9354C0E0
:10341000E981FA818281882309F04EC0E981FA812D
:103420008381813049F4A5E4B0E0EFE4F0E08081ED
:103430008F7C80628C9340C0E981FA8183818823EC
:10344000D9F5A5E4B0E0EFE4F0E0808180638C93EF
:1034500033C0A5E4B0E0E5E4F0E0808188648C93BB
:10346000E981FA818281813041F4A9E5B0E0E9E5A2
:10347000F0E08081806C8C931FC0E981FA818281A9
:103480008823D1F4E981FA818381813049F4A5E46C
:10349000B0E0EFE4F0E080818F7C80628C930CC020
:1034A000E981FA818381882339F4A5E4B0E0EFE46F
:1034B000F0E0808180638C930F900F900F900F90BD
:1034C000CF91DF910895DF93CF9300D000D0CDB797
:1034D000DEB79A8389837C836B8389819A81009785
:1034E00079F0E981FA818081882F90E002978C3011
:1034F000910530F4E6E4F0E08B819C819183808338
:103500000F900F900F900F90CF91DF910895DF9360
:10351000CF9300D000D000D0CDB7DEB79A83898397
:103520007C836B8389819A81009761F1E981FA81BB
:103530008081282F30E03E832D838D819E818E30C7
:10354000910554F42D813E812230310584F48D8122
:103550009E819923BCF006C02D813E81203131052A
:103560008CF40CC0ECE5F0E08B8180830BC0E8E4C8
:10357000F0E08B819C819183808304C0E3E4F0E0E0
:103580008B81808326960FB6F894DEBF0FBECDBF29
:10359000CF91DF910895DF93CF93CDB7DEB72A9710
:1035A0000FB6F894DEBF0FBECDBF9A8389838981A1
:1035B0009A81009709F4A7C1E981FA818081282FB7
:1035C00030E03A87298789859A858E30910564F4A1
:1035D00029853A85223031050CF090C089859A857D
:1035E00099230CF490C107C029853A852031310513
:1035F0000CF089C106C181E063E041E00E94101F28
:10360000E981FA818181282F30E038872F838F81EB
:1036100098858330910509F445C02F813885243081
:1036200031057CF48F8198858130910549F12F8196
:103630003885223031056CF58F8198850097C1F06F
:1036400062C12F8138852530310509F43DC08F8155
:103650009885853091057CF12F813885263031059C
:10366000E1F18F8198858730910509F43FC04BC106
:10367000A3E5B0E0E3E5F0E08081887F8C9343C16F
:10368000A3E5B0E0E3E5F0E08081887F81608C9382
:103690003AC1A3E5B0E0E3E5F0E08081887F826095
:1036A0008C9331C1A3E5B0E0E3E5F0E08081887F51
:1036B00083608C9328C1A3E5B0E0E3E5F0E080816E
:1036C000887F84608C931FC1A3E5B0E0E3E5F0E060
:1036D0008081887F85608C9316C1A3E5B0E0E3E527
:1036E000F0E08081887F86608C930DC1A3E5B0E017
:1036F000E3E5F0E0808187608C9305C183E064E0BE
:1037000041E00E94101FE981FA818181282F30E079
:103710003E832D838D819E818330910509F445C0C0
:103720002D813E81243031057CF48D819E81813054
:10373000910549F12D813E81223031056CF58D8155
:103740009E810097C1F0DFC02D813E81253031057B
:1037500009F43DC08D819E81853091057CF12D81DC
:103760003E8126303105E1F18D819E8187309105C2
:1037700009F43FC0C8C0AEE4B0E0EEE4F0E0808100
:10378000887F8C93C0C0AEE4B0E0EEE4F0E08081CE
:10379000887F81608C93B7C0AEE4B0E0EEE4F0E0E7
:1037A0008081887F82608C93AEC0AEE4B0E0EEE4AE
:1037B000F0E08081887F83608C93A5C0AEE4B0E0A8
:1037C000EEE4F0E08081887F84608C939CC0AEE45E
:1037D000B0E0EEE4F0E08081887F85608C9393C058
:1037E000AEE4B0E0EEE4F0E08081887F86608C9308
:1037F0008AC0AEE4B0E0EEE4F0E0808187608C93B4
:1038000082C083E067E041E00E94101FE981FA81F5
:103810008181282F30E03C832B838B819C818330F6
:10382000910509F44EC02B813C81243031057CF494
:103830008B819C818130910549F12B813C81223023
:1038400031056CF58B819C810097C1F05CC02B81A8
:103850003C812530310509F44FC08B819C81853036
:1038600091050CF440C02B813C812830310501F1D9
:103870008B819C818930910569F145C0A5E4B0E058
:10388000E5E4F0E08081887F8C933DC0A5E4B0E062
:10389000E5E4F0E08081887F81608C9334C0A5E40A
:1038A000B0E0E5E4F0E08081887F82608C932BC0FB
:1038B000A5E4B0E0E5E4F0E08081887F83608C934C
:1038C00022C0A5E4B0E0E5E4F0E08081887F846078
:1038D0008C9319C0A5E4B0E0E5E4F0E08081887F36
:1038E00085608C9310C0A5E4B0E0E5E4F0E0808151
:1038F000887F86608C9307C0A5E4B0E0E5E4F0E043
:10390000808187608C932A960FB6F894DEBF0FBE35
:10391000CDBFCF91DF910895DF93CF9300D000D03A
:10392000CDB7DEB79A83898389819A81009799F10F
:10393000E981FA818081282F30E03C832B838B81C1
:103940009C818E30910554F42B813C8122303105CD
:103950009CF48B819C819923F4F006C02B813C81DF
:1039600020313105C4F410C0A3E5B0E0E3E5F0E098
:103970008081887F8C930FC0AEE4B0E0EEE4F0E08D
:103980008081887F8C9307C0A5E4B0E0E5E4F0E097
:103990008081887F8C930F900F900F900F90CF9124
:1039A000DF910895DF93CF93CDB7DEB7AFE5B0E0F9
:1039B000EFE5F0E0808180688C93CF91DF910895EE
:1039C000DF93CF93CDB7DEB7AFE5B0E0EFE5F0E042
:1039D00080818F778C93CF91DF910895DF93CF9380
:1039E0000F92CDB7DEB78983ABE5B0E0EBE5F0E051
:1039F0008081482F8981282F30E081E090E0022EDD
:103A000002C0880F991F0A94E2F7842B8C930F90C1
:103A1000CF91DF910895DF93CF930F92CDB7DEB7AB
:103A20008983ABE5B0E0EBE5F0E08081482F898148
:103A3000282F30E081E090E0022E02C0880F991F0D
:103A40000A94E2F7809584238C930F90CF91DF91B5
:103A50000895DF93CF9300D00F92CDB7DEB78A835E
:103A60006B8319828A81863009F04BC08B8181304B
:103A700079F4A5E5B0E0E5E5F0E080818E7F8C93F8
:103A8000A5E5B0E0E5E5F0E080818D7F8C93A6C0F0
:103A90008B81823079F4A5E5B0E0E5E5F0E0808146
:103AA00081608C93A5E5B0E0E5E5F0E080818D7F55
:103AB0008C9394C08B81833079F4A5E5B0E0E5E583
:103AC000F0E080818E7F8C93A5E5B0E0E5E5F0E045
:103AD000808182608C9382C08B81843079F4A5E5EB
:103AE000B0E0E5E5F0E0808181608C93A5E5B0E091
:103AF000E5E5F0E0808182608C9370C081E089838D
:103B00006DC08A81873009F04BC08B81813079F498
:103B1000A5E5B0E0E5E5F0E080818B7F8C93A5E53D
:103B2000B0E0E5E5F0E08081877F8C9357C08B8122
:103B3000823079F4A5E5B0E0E5E5F0E080818460CD
:103B40008C93A5E5B0E0E5E5F0E08081877F8C937C
:103B500045C08B81833079F4A5E5B0E0E5E5F0E080
:103B600080818B7F8C93A5E5B0E0E5E5F0E0808176
:103B700088608C9333C08B81843079F4A5E5B0E004
:103B8000E5E5F0E0808184608C93A5E5B0E0E5E5B3
:103B9000F0E0808188608C9321C081E089831EC021
:103BA0008A818530C9F48B81833041F4A4E5B0E08B
:103BB000E4E5F0E080818F7B8C9310C08B818430B2
:103BC00041F4A4E5B0E0E4E5F0E0808180648C930A
:103BD00005C081E0898302C081E0898389810F90DB
:103BE0000F900F90CF91DF910895DF93CF9300D086
:103BF000CDB7DEB789838981863091F4EAE5F0E0BC
:103C000080818295869586958370882F90E081705B
:103C10009070882319F081E08A8328C01A8226C018
:103C20008981873069F4EAE5F0E08081881F882780
:103C3000881F813019F481E08A8318C01A8216C067
:103C40008981853089F4EAE5F0E080818295869566
:103C50008770882F90E081709070882319F081E040
:103C60008A8304C01A8202C08FEF8A838A810F90F0
:103C70000F90CF91DF910895DF93CF9300D0CDB710
:103C8000DEB79A83898389819A8190930B0580930B
:103C90000A050F900F90CF91DF910895DF93CF9396
:103CA00000D0CDB7DEB79A83898389819A819093BA
:103CB0000D0580930C050F900F90CF91DF91089523
:103CC000DF93CF9300D0CDB7DEB79A838983898104
:103CD0009A8190930F0580930E050F900F90CF91CE
:103CE000DF9108951F920F920FB60F9211242F9318
:103CF0003F934F935F936F937F938F939F93AF9374
:103D0000BF93EF93FF93DF93CF93CDB7DEB7E091EF
:103D10000A05F0910B050995CF91DF91FF91EF9185
:103D2000BF91AF919F918F917F916F915F914F91D3
:103D30003F912F910F900FBE0F901F9018951F92DB
:103D40000F920FB60F9211242F933F934F935F93CF
:103D50006F937F938F939F93AF93BF93EF93FF9353
:103D6000DF93CF93CDB7DEB7E0910C05F0910D0551
:103D70000995CF91DF91FF91EF91BF91AF919F9105
:103D80008F917F916F915F914F913F912F910F9004
:103D90000FBE0F901F9018951F920F920FB60F92A3
:103DA00011242F933F934F935F936F937F938F9340
:103DB0009F93AF93BF93EF93FF93DF93CF93CDB7D1
:103DC000DEB7E0910E05F0910F050995CF91DF91D7
:103DD000FF91EF91BF91AF919F918F917F916F91E3
:103DE0005F914F913F912F910F900FBE0F901F90B9
:103DF0001895DF93CF93CDB7DEB7EAE3F0E08FEE0F
:103E00008083E7E3F0E08FEF8083E4E3F0E08FEF7F
:103E10008083E1E3F0E08FEF8083CF91DF9108951D
:103E2000DF93CF93CDB7DEB727970FB6F894DEBFF9
:103E30000FBECDBF89836A834B838B81813009F0AC
:103E40006FC08981282F30E03F832E838E819F8130
:103E50008130910549F12E813F81223031052CF4CA
:103E60008E819F81009761F0D2C02E813F812230E8
:103E7000310571F18E819F8183309105E9F1C7C0D1
:103E8000AAE3B0E0EAE3F0E08081482F8A81282F9E
:103E900030E081E090E0022E02C0880F991F0A9462
:103EA000E2F7842B8C93B3C0A7E3B0E0E7E3F0E044
:103EB0008081482F8A81282F30E081E090E0022E17
:103EC00002C0880F991F0A94E2F7842B8C939FC03D
:103ED000A4E3B0E0E4E3F0E08081482F8A81282F5A
:103EE00030E081E090E0022E02C0880F991F0A9412
:103EF000E2F7842B8C938BC0A1E3B0E0E1E3F0E028
:103F00008081482F8A81282F30E081E090E0022EC6
:103F100002C0880F991F0A94E2F7842B8C9377C014
:103F20008B81882309F073C08981282F30E03D837D
:103F30002C838C819D818130910559F12C813D81AB
:103F4000223031052CF48C819D81009769F05FC08F
:103F50002C813D812230310589F18C819D81833016
:103F6000910509F440C053C0AAE3B0E0EAE3F0E0F1
:103F70008081482F8A81282F30E081E090E0022E56
:103F800002C0880F991F0A94E2F7809584238C93CE
:103F90003EC0A7E3B0E0E7E3F0E08081482F8A81EC
:103FA000282F30E081E090E0022E02C0880F991F98
:103FB0000A94E2F7809584238C9329C0A4E3B0E0AF
:103FC000E4E3F0E08081482F8A81282F30E081E00F
:103FD00090E0022E02C0880F991F0A94E2F78095A4
:103FE00084238C9314C0A1E3B0E0E1E3F0E080818E
:103FF000482F8A81282F30E081E090E0022E02C015
:10400000880F991F0A94E2F7809584238C93279652
:104010000FB6F894DEBF0FBECDBFCF91DF910895EC
:10402000DF93CF930F92CDB7DEB78983EBE3F0E058
:1040300090818981981729F4EAE3F0E08FEE80837C
:1040400020C0E8E3F0E090818981981729F4E7E344
:10405000F0E08FEF808315C0E5E3F0E09081898187
:10406000981729F4E4E3F0E08FEF80830AC0E2E3DD
:10407000F0E090818981981721F4E1E3F0E08FEF7F
:1040800080830F90CF91DF910895DF93CF93CDB7C9
:10409000DEB72B970FB6F894DEBF0FBECDBF8A8375
:1040A0006B8319828A818830D8F58B81282F30E084
:1040B0003B872A878A859B85009731F02A853B8537
:1040C00021303105B1F029C0ABE3B0E0EBE3F0E023
:1040D0008081482F8A81282F30E081E090E0022EF5
:1040E00002C0880F991F0A94E2F7809584238C936D
:1040F000F8C0ABE3B0E0EBE3F0E08081482F8A81C9
:10410000282F30E081E090E0022E02C0880F991F36
:104110000A94E2F7842B8C93E4C081E08983E1C0A8
:104120008A81883008F445C08A81803108F041C016
:104130008B81282F30E039872887888599850097DB
:1041400031F02885398521303105C9F02FC0A8E329
:10415000B0E0E8E3F0E08081482F8A81882F90E08A
:104160009C012770307081E090E0022E02C0880F21
:10417000991F0A94E2F7809584238C93B2C0A8E338
:10418000B0E0E8E3F0E08081482F8A81882F90E05A
:104190009C012770307081E090E0022E02C0880FF1
:1041A000991F0A94E2F7842B8C939BC081E089834A
:1041B00098C08A81803108F445C08A81883108F02E
:1041C00041C08B81282F30E03F832E838E819F81D9
:1041D000009731F02E813F8121303105C9F02FC089
:1041E000A5E3B0E0E5E3F0E08081482F8A81882FE5
:1041F00090E09C012F70307081E090E0022E02C0B0
:10420000880F991F0A94E2F7809584238C9369C0E4
:10421000A5E3B0E0E5E3F0E08081482F8A81882FB4
:1042200090E09C012F70307081E090E0022E02C07F
:10423000880F991F0A94E2F7842B8C9352C081E077
:1042400089834FC08A81883108F449C08A818032CD
:1042500008F045C08B81282F30E03D832C838C8172
:104260009D81009731F02C813D8121303105D9F0BD
:1042700033C0A2E3B0E0E2E3F0E08081482F8A811E
:1042800098E1692F0E945330892F282F30E081E078
:1042900090E0022E02C0880F991F0A94E2F78095E1
:1042A00084238C931EC0A2E3B0E0E2E3F0E08081BF
:1042B000482F8A8198E1692F0E945330892F282F37
:1042C00030E081E090E0022E02C0880F991F0A942E
:1042D000E2F7842B8C9305C081E0898302C081E0E2
:1042E000898389812B960FB6F894DEBF0FBECDBFB0
:1042F000CF91DF910895DF93CF9300D000D0CDB759
:10430000DEB78A837C836B8319828B819C810097C3
:1043100009F471C08A818830A0F4E9E3F0E080817B
:10432000282F30E08A81882F90E0A90102C055959E
:1043300047958A95E2F7CA018170EB81FC81808301
:104340005CC08A818830C8F08A818031B0F4E6E3AD
:10435000F0E08081282F30E08A81882F90E08770FC
:104360009070A90102C0559547958A95E2F7CA0158
:104370008170EB81FC81808340C08A818031C8F0EC
:104380008A818831B0F4E3E3F0E08081282F30E0C7
:104390008A81882F90E08F709070A90102C0559596
:1043A00047958A95E2F7CA018170EB81FC81808391
:1043B00024C08A818831E0F08A818032C8F4E0E349
:1043C000F0E08081282F30E08A8198E1692F0E94F7
:1043D0005330892F882F90E0A90102C05595479549
:1043E0008A95E2F7CA018170EB81FC81808305C068
:1043F00081E0898302C082E0898389810F900F90D8
:104400000F900F90CF91DF910895DF93CF9300D05D
:10441000CDB7DEB789836A8389816A810E9445208E
:104420000F900F90CF91DF910895DF93CF93CDB789
:10443000DEB727970FB6F894DEBF0FBECDBF9C83C3
:104440008B837E836D834F831A8219821DC089817D
:10445000282F30E08B819C81FC01E20FF31F40810B
:104460008981282F30E08D819E81FC01E20FF31FAE
:104470009081842F692F0E9445208A838A81882316
:1044800039F489818F5F898399818F819817F8F238
:104490008A8127960FB6F894DEBF0FBECDBFCF91AD
:1044A000DF910895DF93CF93CDB7DEB781E080939E
:1044B000130581E08093100583E08093110510922D
:1044C000120581E063E041E00E94101F80E195E069
:1044D0000E942216E9E5F0E081E080830E94D21C70
:1044E00010921405CF91DF9108950F931F93DF93DE
:1044F000CF9300D00F92CDB7DEB79B838A8381E044
:10450000898380911405882339F480E195E00E9425
:10451000CB1A81E0809314050CE510E08981282FE7
:1045200030E08A819B81AC01249FC001259F900DC2
:10453000349F900D1124880F991F9C0140E050E09A
:1045400080E092E1AAE7B0E0BC01CD010E945F30BB
:10455000DA01C9018150F80180830F900F900F900C
:10456000CF91DF911F910F910895DF93CF93CDB736
:10457000DEB780E195E00E948C1C10921405CF916B
:10458000DF9108951F920F920FB60F9211248F930F
:104590009F93AF93BF93EF93FF93DF93CF93CDB7E9
:1045A000DEB7A8E3B0E0E8E3F0E0908188E0892797
:1045B0008C93CF91DF91FF91EF91BF91AF919F913C
:1045C0008F910F900FBE0F901F901895DF93CF9390
:1045D00000D0CDB7DEB79A83898389819A8100970D
:1045E00041F189819A810E942216E981FA818081B4
:1045F000883051F0E981FA8180818A3029F0E9819F
:10460000FA8180818C3049F489819A81E981FA812B
:1046100025813681B9010E94631AE981FA812481DA
:1046200089819A81622F0E941E2389819A810E942A
:10463000CB1A0F900F90CF91DF910895DF93CF9316
:1046400000D000D00F92CDB7DEB79A8389836B83F9
:104650008B81282F30E03D832C838C819D8181309C
:10466000910599F02C813D8122303105C1F08C817A
:104670009D810097E9F489819A81E981FA812781F6
:104680003085B9010E94871A13C089819A81E98116
:10469000FA8121853285B9010E94871A09C0898172
:1046A0009A81E981FA8123853485B9010E94871AAC
:1046B0000F900F900F900F900F90CF91DF91089572
:1046C000DF93CF9300D0CDB7DEB79A8389838981FA
:1046D0009A810E94CB1A0F900F90CF91DF9108958D
:1046E000DF93CF9300D0CDB7DEB79A8389838981DA
:1046F0009A810E948C1C0F900F90CF91DF910895AA
:10470000DF93CF9300D0CDB7DEB79A8389838981B9
:104710009A810E94582881E00E9462290F900F9090
:10472000CF91DF910895DF93CF930F92CDB7DEB78E
:10473000898389810E94042A0F90CF91DF91089587
:10474000DF93CF9300D000D0CDB7DEB79C838B83AF
:104750001A8219820FC029813A818B819C81FC01C8
:10476000E20FF31F80810E94042A89819A810196B9
:104770009A83898329813A818B819C81FC01E20F94
:10478000F31F8081882339F70F900F900F900F90BF
:10479000CF91DF910895AF92BF92CF92DF92EF92C7
:1047A000FF920F931F93DF93CF93CDB7DEB7C3561E
:1047B000D0400FB6F894DEBF0FBECDBF6A877B87AF
:1047C0008C879D871A821B821C821D821E821F82FB
:1047D0001886198619828A859B85AC85BD85BB2381
:1047E00094F48A859B85AC85BD85B095A095909500
:1047F00081959F4FAF4FBF4F8A879B87AC87BD87FF
:104800008DE20E94042A2A813B814C815D816E8168
:104810007F8188859985A22EB32EC42ED52EE62EB3
:10482000F72E082F192F2A2D3B2D4C2D5D2D6E2D87
:104830007F2D802F912F01E00E9449002E8F3F8F06
:1048400048A359A36AA37BA38CA39DA32E8D3F8D60
:1048500048A159A16AA17BA18CA19DA102E00E945F
:1048600049002EA33FA348A759A76AA77BA78CA7F7
:104870009DA78E8D9EA1890F8EA781E08EAB9EA5F0
:104880008E8D981708F01EAA9F8D8FA1980F9FA755
:1048900091E09FAB8FA59F8D891708F01FAA8EA965
:1048A0009FA5890F88AF81E089AF98AD8FA5981734
:1048B00008F019AE9FA989AD982B9FAB98AD9FA723
:1048C00088A198A5890F88AB81E08AAF98A988A1B3
:1048D000981708F01AAE9FA988A9980F9BAF91E08E
:1048E0009CAF8BAD98A9891708F01CAE8AAD9CAD22
:1048F000892B8AAF8BAD88AB99A189A5980F99AB0D
:1049000091E09DAF89A999A1891708F01DAE8AADE4
:1049100099A9890F8EAF81E08FAF9EAD89A99817B5
:1049200008F01FAE9DAD8FAD982B9DAF9EAD99AB9E
:104930008AA19AA5890F8AAB81E021968FAF219732
:104940009AA98AA1981718F021961FAE21979DADBC
:104950008AA9980F22969FAF229791E023969FAF46
:10496000239722968FAD22979AA9891718F023963C
:104970001FAE239721968FAD219723969FAD239746
:10498000892B21968FAF219722968FAD22978AABE4
:104990009BA18BA5980F9BAB91E024969FAF24978A
:1049A0008BA99BA1891718F024961FAE24972196F6
:1049B0008FAD21979BA9890F25968FAF259781E011
:1049C00026968FAF269725969FAD25978BA998178A
:1049D00018F026961FAE269724969FAD249726960C
:1049E0008FAD2697982B24969FAF249725969FAD41
:1049F00025979BAB8CA19CA5890F8CAB81E027965A
:104A00008FAF27979CA98CA1981718F027961FAEF7
:104A1000279724969FAD24978CA9980F28969FAF2F
:104A2000289791E029969FAF299728968FAD2897D0
:104A30009CA9891718F029961FAE299727968FAD44
:104A4000279729969FAD2997892B27968FAF279770
:104A500028968FAD28978CAB9DA18DA5980F9DAB07
:104A600027968FAD27979DA9890F8DAB8EA58E8B2D
:104A70009FA59F8B88A9888F99A9998F8AA98A8FCA
:104A80009BA99B8F8CA98C8F9DA99D8F8A859B85C7
:104A9000AC85BD852AE030E040E050E0BC01CD01AE
:104AA0000E948130DC01CB019C01AD01DA01C9011A
:104AB000BB0F880B982FDC012E873F87488B598BC3
:104AC0008A8B8B8B8C8B8D8B8E899E85890F2A96FA
:104AD0008FAF2A9781E062968FAF62972A969FAD3B
:104AE0002A978E89981718F062961FAE62979F8951
:104AF0008F85980F2B969FAF2B9791E063969FAF72
:104B000063972B968FAD2B979F89891718F0639623
:104B10001FAE639762968FAD62972B969FAD2B97D2
:104B2000890F64968FAF649781E065968FAF659724
:104B300064969FAD64972B968FAD2B97981718F0BE
:104B400065961FAE659763969FAD639765968FAD2B
:104B50006597982B63969FAF639764969FAD649714
:104B60002B969FAF2B97888D9889890F2C968FAFA6
:104B70002C9781E066968FAF66972C969FAD2C9709
:104B8000888D981718F066961FAE669763969FAD4E
:104B900063972C968FAD2C97980F67969FAF67976A
:104BA00091E068969FAF689767968FAD67972C9650
:104BB0009FAD2C97891718F068961FAE6897669678
:104BC0008FAD669768969FAD6897892B66968FAF75
:104BD000669767968FAD67972C968FAF2C97998DB8
:104BE0008989980F2D969FAF2D9791E069969FAF79
:104BF00069972D968FAD2D97998D891718F0699625
:104C00001FAE699766968FAD66972D969FAD2D97CF
:104C1000890F6A968FAF6A9781E06B968FAF6B971B
:104C20006A969FAD6A972D968FAD2D97981718F0BD
:104C30006B961FAE6B9769969FAD69976B968FAD1C
:104C40006B97982B69969FAF69976A969FAD6A9705
:104C50002D969FAF2D978A8D9A89890F2E968FAFAB
:104C60002E9781E06C968FAF6C972E969FAD2E9706
:104C70008A8D981718F06C961FAE6C9769969FAD49
:104C800069972E968FAD2E97980F6D969FAF6D9763
:104C900091E06E969FAF6E976D968FAD6D972E9645
:104CA0009FAD2E97891718F06E961FAE6E976C9673
:104CB0008FAD6C976E969FAD6E97892B6C968FAF6C
:104CC0006C976D968FAD6D972E968FAF2E979B8DAF
:104CD0008B89980F2F969FAF2F9791E06F969FAF7C
:104CE0006F972F968FAD2F979B8D891718F06F9622
:104CF0001FAE6F976C968FAD6C972F969FAD2F97C9
:104D0000890FA0968FAFA09781E0A1968FAFA19752
:104D1000A0969FADA0972F968FAD2F97981718F05C
:104D2000A1961FAEA1976F969FAD6F97A1968FAD7D
:104D3000A197982B6F969FAF6F97A0969FADA09766
:104D40002F969FAF2F978C8D9C89890F60968FAF80
:104D5000609781E0A2968FAFA29760969FAD609713
:104D60008C8D981718F0A2961FAEA2976F969FADE4
:104D70006F9760968FAD6097980FA3969FAFA3979C
:104D800091E0A4969FAFA497A3968FADA39760964A
:104D90009FAD6097891718F0A4961FAEA497A296AE
:104DA0008FADA297A4969FADA497892BA2968FAFA3
:104DB000A297A3968FADA39760968FAF60979D8DB6
:104DC0008D89980F61969FAF6197A2968FADA2973C
:104DD00061969FAD6197890F61968FAF61972A9613
:104DE0008FAD2A978A832B969FAD2B979B832C960A
:104DF0008FAD2C978C832D969FAD2D979D832E96EE
:104E00008FAD2E978E832F969FAD2F979F836096A1
:104E10008FAD6097888761969FAD619799878A85E6
:104E20009B85AC85BD852AE030E040E050E0BC01C8
:104E3000CD010E948130DA01C9018A879B87AC8746
:104E4000BD8789818F5F89838A859B85AC85BD8578
:104E5000181619061A061B060CF4D5CC61C0AA80D8
:104E6000BB80CC80DD80EE80FF80088519852A2DEF
:104E70003B2D4C2D5D2D6E2D7F2D802F912F0F2ED4
:104E8000FAE0AF2EF02DBB24CC24DD24EE24FF2449
:104E900000E010E00E943D07A22EB32EC42ED52EB6
:104EA000E62EF72E082F192F2A2D3B2D4C2D5D2D88
:104EB0006E2D7F2D802F912F822F805D0E94042ADE
:104EC000AA80BB80CC80DD80EE80FF8008851985BC
:104ED0002A2D3B2D4C2D5D2D6E2D7F2D802F912F5A
:104EE0000F2EFAE0AF2EF02DBB24CC24DD24EE24CF
:104EF000FF2400E010E00E94C800A22EB32EC42EB2
:104F0000D52EE62EF72E082F192FAA82BB82CC822F
:104F1000DD82EE82FF82088719878981815089832B
:104F20008981882309F09BCFCD59DF4F0FB6F894C4
:104F3000DEBF0FBECDBFCF91DF911F910F91FF90CC
:104F4000EF90DF90CF90BF90AF900895DF93CF9315
:104F5000CDB7DEB781E00E946229CF91DF9108953D
:104F6000DF93CF9300D00F92CDB7DEB78A836B83E8
:104F70008A81882F90E000249695879507949695CE
:104F800087950794982F802D982F8B81890F89837F
:104F900089818068898389810E9462290F900F909E
:104FA0000F90CF91DF910895DF93CF930F92CDB7FC
:104FB000DEB7898306C088E10E9462298981815019
:104FC000898389818823B9F70F90CF91DF91089564
:104FD000DF93CF9300D000D00F92CDB7DEB78A8396
:104FE0006B838A81282F30E03D832C838C819D81C7
:104FF000009731F02C813D812130310521F006C030
:105000008B81898303C08B81805C898389818068DF
:105010000E9462290F900F900F900F900F90CF91E8
:10502000DF910895DF93CF930F92CDB7DEB78983D9
:1050300006C08CE10E94622989818150898389811F
:105040008823B9F70F90CF91DF910895DF93CF9325
:10505000CDB7DEB782E00E946229CF91DF9108953B
:10506000DF93CF930F92CDB7DEB7898306C084E17B
:105070000E94622989818150898389818823B9F7B7
:105080000F90CF91DF910895DF93CF930F92CDB71B
:10509000DEB7898306C080E10E9462298981815040
:1050A000898389818823B9F70F90CF91DF91089583
:1050B000DF93CF9300D00F92CDB7DEB79B838A8367
:1050C00088E08983EA81FB818081813099F489813C
:1050D00084608983EA81FB818181813059F48981EF
:1050E00082608983EA81FB818281813019F4898120
:1050F0008160898389810E94622980E38983EA81B2
:10510000FB818381813019F4898188608983EA81F8
:10511000FB818481813019F489818460898389814C
:105120000E9462290F900F900F90CF91DF91089508
:10513000DF93CF9300D000D0CDB7DEB78A837C83D6
:105140006B838A81883018F58A81882F90E0880FD8
:10515000991F880F991F880F991F8A838A818064FD
:105160008A838A810E94622919820EC08981282F30
:1051700030E08B819C81FC01E20FF31F80810E9453
:10518000042A89818F5F89838981883078F30F9021
:105190000F900F900F90CF91DF910895DF93CF93F1
:1051A00000D000D0CDB7DEB7CE010B969A838983AD
:1051B0007CC0E985FA858081853209F06CC08985DB
:1051C0009A8501969A878987E985FA858081282FB3
:1051D00030E03C832B838B819C818436910511F1D7
:1051E0002B813C812536310534F48B819C818336BB
:1051F000910561F04AC02B813C812C363105A9F123
:105200008B819C8185379105F9F03FC029813A81D6
:10521000C90102969A838983F901808191810E9454
:1052200093233EC029813A81C90102969A838983DA
:10523000F90180819181AA2797FDA095BA2FBC0121
:10524000CD010E94CB232CC029813A81C90102964D
:105250009A838983F90180819181CC01A0E0B0E03B
:10526000BC01CD010E94CB231BC029813A81C90119
:1052700004969A838983F90180819181A281B38107
:10528000BC01CD010E94CB230BC0E985FA8580814A
:105290000E94932305C0E985FA8580810E949323AB
:1052A00089859A8501969A878987E985FA8580811B
:1052B000882309F07ECF0F900F900F900F90CF9121
:1052C000DF910895DF93CF93CDB7DEB729970FB65F
:1052D000F894DEBF0FBECDBF898787E060E00E94F3
:1052E000452086E060E00E9445208985982F9170D6
:1052F00080E1692F0E94452089858695982F9170BD
:1053000081E1692F0E944520898586958695982F91
:10531000917082E1692F0E94452089858695869546
:105320008695982F917083E1692F0E944520898589
:1053300082958F70982F917084E1692F0E9445208B
:105340008985829586958770982F917085E1692F60
:105350000E94452089858295869586958370982F31
:10536000917086E1692F0E9445208985982F991FA9
:105370009927991F87E1692F0E94452085E061E008
:105380000E9445201D821E821F82188628C080ED43
:1053900097E0A0E0B0E089839A83AB83BC830CC024
:1053A000000089819A81AB81BC810197A109B10973
:1053B00089839A83AB83BC8389819A81AB81BC81C9
:1053C0000097A105B10561F78D819E81AF81B885F8
:1053D0000197A109B1098D839E83AF83B8878D8121
:1053E0009E81AF81B8850097A105B10581F685E062
:1053F00060E00E94452029960FB6F894DEBF0FBEEC
:10540000CDBFCF91DF910895DF93CF93CDB7DEB7B6
:1054100029970FB6F894DEBF0FBECDBF898787E00E
:1054200061E00E94452086E060E00E944520898579
:10543000982F917080E1692F0E944520898586957B
:10544000982F917081E1692F0E944520898586956A
:105450008695982F917082E1692F0E944520898559
:10546000869586958695982F917083E1692F0E9485
:105470004520898582958F70982F917084E1692FDE
:105480000E9445208985829586958770982F917016
:1054900085E1692F0E9445208985829586958695AC
:1054A0008370982F917086E1692F0E94452089852D
:1054B000982F991F9927991F87E1692F0E944520EE
:1054C00085E061E00E9445201D821E821F821886B1
:1054D00028C080ED97E0A0E0B0E089839A83AB8399
:1054E000BC830CC0000089819A81AB81BC8101978B
:1054F000A109B10989839A83AB83BC8389819A818D
:10550000AB81BC810097A105B10561F78D819E81BA
:10551000AF81B8850197A109B1098D839E83AF83BF
:10552000B8878D819E81AF81B8850097A105B105AF
:1055300081F685E060E00E94452029960FB6F89438
:10554000DEBF0FBECDBFCF91DF910895DF93CF9324
:10555000CDB7DEB788E593E00E94B90ECF91DF9119
:105560000895DF93CF93CDB7DEB788E593E00E942F
:105570002710CF91DF910895DF93CF93CDB7DEB79A
:1055800088E593E00E944110CF91DF910895DF9369
:10559000CF930F92CDB7DEB7898389810E945B10CC
:1055A0000F90CF91DF910895DF93CF93CDB7DEB702
:1055B0000E9475108093150580911505CF91DF919C
:1055C0000895DF93CF9300D0CDB7DEB79A83898358
:1055D00089819A810E9492100F900F90CF91DF9154
:1055E0000895DF93CF93CDB7DEB70E94AF10CF9170
:1055F000DF910895DF93CF93CDB7DEB7C758D04082
:105600000FB6F894DEBF0FBECDBF0E94F91E0E94F8
:10561000A62A81EF94E00E94E6220E9452220E9474
:10562000B12A81EF94E00E9460238EEF94E00E9403
:10563000C310FE01E75AFF4F1182FE01E75AFF4FE8
:1056400081E08083FE01E75AFF4F1282FE01E75A94
:10565000FF4F1482FE01E75AFF4F81E08383CE01A2
:10566000875A9F4F0E9480230E94A6270E942628C7
:10567000FE01EA5AFF4F1082FE01EB5AFF4F1082E3
:10568000FE01EC5AFF4F1082FE01EE5AFF4F1082CE
:10569000FE01EF5AFF4F83E080838BE790E00E948A
:1056A000A0230E94F12A81E990E00E94E12A0E9451
:1056B000F12A8DEB90E00E94E12A8FEC90E00E94AD
:1056C000E12AFE01E95AFF4F108226C00E94D42A27
:1056D000FE01E85AFF4F8083FE01E85AFF4F8081A8
:1056E0008D3001F1FE01E95AFF4F8081282F30E013
:1056F000CE01825A9F4FDC01A20FB31FFE01E85A70
:10570000FF4F80818C93DE01A95ABF4FFE01E95AF9
:10571000FF4F80818F5F8C93FE01E95AFF4F80819C
:105720008E31A0F2FE01E95AFF4F8081282F30E030
:10573000CE01825A9F4FFC01E20FF31F1082FE013F
:10574000E95AFF4F108230C0FE01E95AFF4F8081B5
:10575000882F90E0880F991F880F991F880F991F35
:105760009C01220F331F220F331F820F931F9C01B6
:105770002F593C4FCE01825A9F4FB9010E94F230FF
:10578000009749F4DE01AA5ABF4FFE01E95AFF4FC4
:1057900080818F5F8C93DE01A95ABF4FFE01E95AC9
:1057A000FF4F80818F5F8C93FE01E95AFF4F80810C
:1057B0008A3050F20E94262882ED90E00E94A023B9
:1057C00081E060E00E94B027CE01825A9F4F0E9484
:1057D000A02386EE90E00E94A0238FEE90E00E942E
:1057E000E12A8CC2FE01E95AFF4F108234C00E94A8
:1057F000F12A0E94D42AFE01E85AFF4F8083FE015D
:10580000E85AFF4F80818D3061F1FE01E85AFF4F69
:1058100080818033B8F0FE01E85AFF4F80818A33DF
:1058200088F4FE01E95AFF4F8081282F30E0CE0135
:1058300084589F4FDC01A20FB31FFE01E85AFF4FAF
:1058400080818C93DE01A95ABF4FFE01E95AFF4FB8
:1058500080818F5F8C93FE01E95AFF4F80818A30EF
:1058600030F2FE01E95AFF4F8081282F30E0CE014F
:1058700084589F4FFC01E20FF31F1082FE01E95A8A
:10588000FF4F108231C0FE01E95AFF4F8081882FFF
:1058900090E0880F991F880F991F880F991F9C010E
:1058A000220F331F220F331F820F931F4E969C012E
:1058B0002F593C4FCE0184589F4FB9010E94F230BE
:1058C000009749F4DE01AB5ABF4FFE01E95AFF4F82
:1058D00080818F5F8C93DE01A95ABF4FFE01E95A88
:1058E000FF4F80818F5F8C93FE01E95AFF4F8081CB
:1058F0008A3048F280E060E00E94B02780E091E0CA
:105900000E94A02381E060E00E94B027CE0184586D
:105910009F4F0E94A02386EE90E00E94A023FE01EC
:10592000EA5AFF4F8081882389F0FE01EB5AFF4F2E
:105930008081882359F0FE01EA5AFF4FDE01AB5AFD
:10594000BF4F90818C91981709F4BFC1DE01AF5A07
:10595000BF4FFE01EF5AFF4F808181508C9385E14C
:1059600091E00E94E12A86E291E00E94E12AFE0194
:10597000EF5AFF4F8081805D0E94C72A8FEC90E034
:105980000E94E12ADE01AE5ABF4FFE01EE5AFF4FE0
:1059900080818F5F8C93FE01EE5AFF4F80818330B0
:1059A00009F08EC18DE391E00E94E12A8EEF94E030
:1059B0000E945F131092080580E061E00E9445207C
:1059C0006DC184EF91E00E947522FE01E35BFF4F01
:1059D0008FE190E0A0E0B0E080839183A283B38365
:1059E0003CC0FE01E75BFF4F80ED97E0A0E0B0E038
:1059F00080839183A283B38313C000009E01275B41
:105A00003F4FFE01E75BFF4F80819181A281B3810F
:105A10000197A109B109F90180839183A283B3831E
:105A2000FE01E75BFF4F80819181A281B3810097E6
:105A3000A105B10511F79E01235B3F4FFE01E35B1A
:105A4000FF4F80819181A281B3810197A109B109A2
:105A5000F90180839183A283B383FE01E35BFF4F4F
:105A600080819181A281B3810097A105B10509F0E0
:105A7000B8CF8CE494E00E947522FE01EB5BFF4FEF
:105A80008FE190E0A0E0B0E080839183A283B383B4
:105A90003CC0FE01EF5BFF4F80ED97E0A0E0B0E07F
:105AA00080839183A283B38313C000009E012F5B88
:105AB0003F4FFE01EF5BFF4F80819181A281B38157
:105AC0000197A109B109F90180839183A283B3836E
:105AD000FE01EF5BFF4F80819181A281B38100972E
